{
  "_format": "hh-sol-artifact-1",
  "contractName": "CertificateVerification",
  "sourceName": "contracts/Certificate.sol",
  "abi": [
    {
      "inputs": [],
      "stateMutability": "nonpayable",
      "type": "constructor"
    },
    {
      "inputs": [],
      "name": "admin",
      "outputs": [
        {
          "internalType": "address",
          "name": "",
          "type": "address"
        }
      ],
      "stateMutability": "view",
      "type": "function"
    },
    {
      "inputs": [
        {
          "internalType": "string",
          "name": "_certId",
          "type": "string"
        },
        {
          "internalType": "string",
          "name": "_studentName",
          "type": "string"
        },
        {
          "internalType": "string",
          "name": "_course",
          "type": "string"
        },
        {
          "internalType": "string",
          "name": "_grade",
          "type": "string"
        }
      ],
      "name": "issueCertificate",
      "outputs": [],
      "stateMutability": "nonpayable",
      "type": "function"
    },
    {
      "inputs": [
        {
          "internalType": "string",
          "name": "_certId",
          "type": "string"
        }
      ],
      "name": "verifyCertificate",
      "outputs": [
        {
          "internalType": "string",
          "name": "",
          "type": "string"
        },
        {
          "internalType": "string",
          "name": "",
          "type": "string"
        },
        {
          "internalType": "string",
          "name": "",
          "type": "string"
        },
        {
          "internalType": "uint256",
          "name": "",
          "type": "uint256"
        }
      ],
      "stateMutability": "view",
      "type": "function"
    }
  ],
  "bytecode": "0x608060405234801561001057600080fd5b50336000806101000a81548173ffffffffffffffffffffffffffffffffffffffff021916908373ffffffffffffffffffffffffffffffffffffffff160217905550610cf0806100606000396000f3fe608060405234801561001057600080fd5b50600436106100415760003560e01c8063818a2994146100465780638b23d87514610062578063f851a44014610095575b600080fd5b610060600480360381019061005b919061061d565b6100b3565b005b61007c600480360381019061007791906106f4565b6101fe565b60405161008c94939291906107d5565b60405180910390f35b61009d61049f565b6040516100aa9190610870565b60405180910390f35b60008054906101000a900473ffffffffffffffffffffffffffffffffffffffff1673ffffffffffffffffffffffffffffffffffffffff163373ffffffffffffffffffffffffffffffffffffffff1614610141576040517f08c379a0000000000000000000000000000000000000000000000000000000008152600401610138906108fd565b60405180910390fd5b6040518060a001604052808481526020018381526020018281526020014281526020016001151581525060018560405161017b9190610959565b9081526020016040518091039020600082015181600001908161019e9190610b7c565b5060208201518160010190816101b49190610b7c565b5060408201518160020190816101ca9190610b7c565b506060820151816003015560808201518160040160006101000a81548160ff02191690831515021790555090505050505050565b606080606060006001856040516102159190610959565b908152602001604051809103902060040160009054906101000a900460ff16610273576040517f08c379a000000000000000000000000000000000000000000000000000000000815260040161026a90610c9a565b60405180910390fd5b60006001866040516102859190610959565b90815260200160405180910390206040518060a00160405290816000820180546102ae9061099f565b80601f01602080910402602001604051908101604052809291908181526020018280546102da9061099f565b80156103275780601f106102fc57610100808354040283529160200191610327565b820191906000526020600020905b81548152906001019060200180831161030a57829003601f168201915b505050505081526020016001820180546103409061099f565b80601f016020809104026020016040519081016040528092919081815260200182805461036c9061099f565b80156103b95780601f1061038e576101008083540402835291602001916103b9565b820191906000526020600020905b81548152906001019060200180831161039c57829003601f168201915b505050505081526020016002820180546103d29061099f565b80601f01602080910402602001604051908101604052809291908181526020018280546103fe9061099f565b801561044b5780601f106104205761010080835404028352916020019161044b565b820191906000526020600020905b81548152906001019060200180831161042e57829003601f168201915b50505050508152602001600382015481526020016004820160009054906101000a900460ff161515151581525050905080600001518160200151826040015183606001519450945094509450509193509193565b60008054906101000a900473ffffffffffffffffffffffffffffffffffffffff1681565b6000604051905090565b600080fd5b600080fd5b600080fd5b600080fd5b6000601f19601f8301169050919050565b7f4e487b7100000000000000000000000000000000000000000000000000000000600052604160045260246000fd5b61052a826104e1565b810181811067ffffffffffffffff82111715610549576105486104f2565b5b80604052505050565b600061055c6104c3565b90506105688282610521565b919050565b600067ffffffffffffffff821115610588576105876104f2565b5b610591826104e1565b9050602081019050919050565b82818337600083830152505050565b60006105c06105bb8461056d565b610552565b9050828152602081018484840111156105dc576105db6104dc565b5b6105e784828561059e565b509392505050565b600082601f830112610604576106036104d7565b5b81356106148482602086016105ad565b91505092915050565b60008060008060808587031215610637576106366104cd565b5b600085013567ffffffffffffffff811115610655576106546104d2565b5b610661878288016105ef565b945050602085013567ffffffffffffffff811115610682576106816104d2565b5b61068e878288016105ef565b935050604085013567ffffffffffffffff8111156106af576106ae6104d2565b5b6106bb878288016105ef565b925050606085013567ffffffffffffffff8111156106dc576106db6104d2565b5b6106e8878288016105ef565b91505092959194509250565b60006020828403121561070a576107096104cd565b5b600082013567ffffffffffffffff811115610728576107276104d2565b5b610734848285016105ef565b91505092915050565b600081519050919050565b600082825260208201905092915050565b60005b8381101561077757808201518184015260208101905061075c565b60008484015250505050565b600061078e8261073d565b6107988185610748565b93506107a8818560208601610759565b6107b1816104e1565b840191505092915050565b6000819050919050565b6107cf816107bc565b82525050565b600060808201905081810360008301526107ef8187610783565b905081810360208301526108038186610783565b905081810360408301526108178185610783565b905061082660608301846107c6565b95945050505050565b600073ffffffffffffffffffffffffffffffffffffffff82169050919050565b600061085a8261082f565b9050919050565b61086a8161084f565b82525050565b60006020820190506108856000830184610861565b92915050565b7f4f6e6c792061646d696e2063616e20697373756520636572746966696361746560008201527f7300000000000000000000000000000000000000000000000000000000000000602082015250565b60006108e7602183610748565b91506108f28261088b565b604082019050919050565b60006020820190508181036000830152610916816108da565b9050919050565b600081905092915050565b60006109338261073d565b61093d818561091d565b935061094d818560208601610759565b80840191505092915050565b60006109658284610928565b915081905092915050565b7f4e487b7100000000000000000000000000000000000000000000000000000000600052602260045260246000fd5b600060028204905060018216806109b757607f821691505b6020821081036109ca576109c9610970565b5b50919050565b60008190508160005260206000209050919050565b60006020601f8301049050919050565b600082821b905092915050565b600060088302610a327fffffffffffffffffffffffffffffffffffffffffffffffffffffffffffffffff826109f5565b610a3c86836109f5565b95508019841693508086168417925050509392505050565b6000819050919050565b6000610a79610a74610a6f846107bc565b610a54565b6107bc565b9050919050565b6000819050919050565b610a9383610a5e565b610aa7610a9f82610a80565b848454610a02565b825550505050565b600090565b610abc610aaf565b610ac7818484610a8a565b505050565b5b81811015610aeb57610ae0600082610ab4565b600181019050610acd565b5050565b601f821115610b3057610b01816109d0565b610b0a846109e5565b81016020851015610b19578190505b610b2d610b25856109e5565b830182610acc565b50505b505050565b600082821c905092915050565b6000610b5360001984600802610b35565b1980831691505092915050565b6000610b6c8383610b42565b9150826002028217905092915050565b610b858261073d565b67ffffffffffffffff811115610b9e57610b9d6104f2565b5b610ba8825461099f565b610bb3828285610aef565b600060209050601f831160018114610be65760008415610bd4578287015190505b610bde8582610b60565b865550610c46565b601f198416610bf4866109d0565b60005b82811015610c1c57848901518255600182019150602085019450602081019050610bf7565b86831015610c395784890151610c35601f891682610b42565b8355505b6001600288020188555050505b505050505050565b7f4365727469666963617465206e6f7420666f756e640000000000000000000000600082015250565b6000610c84601583610748565b9150610c8f82610c4e565b602082019050919050565b60006020820190508181036000830152610cb381610c77565b905091905056fea2646970667358221220ce30d0935ac3e179c0f83340b160edc34299af4bd1221491d09b5918c1b4079b64736f6c63430008140033",
  "linkReferences": {},
  "deployedLinkReferences": {}
}